:0400000007EF00F016
:0A0008003E824CED04F097EF04F087
:1008000000010000000A00000064000000E803008E
:100810000010270000A086010040420F008096983B
:100820000000E1F50500CA9A3B00803F002041002E
:10083000C842007A44401C4650C347247449971864
:100840004BBCBE4C6B6E4E03155079AD60F34971D5
:1008500000803FCDCC3DD7233C12833AB7D138C678
:100860002737388635C0D633CC2B32708930E7DB5A
:100870002EE53C1E42A20DF44A489595C7C1DC45C1
:10088000DC6DC3B333403401489DB04500DA42000B
:10089000803F252E346600000600FACF30F0FBCFF3
:1008A00031F0E9CF32F0EACF33F0E1CF34F0E2CFEC
:1008B00035F0D9CF36F0DACF37F0F3CF38F0F4CFC8
:1008C00039F0F6CF3AF0F7CF3BF0F8CF3CF0F5CF68
:1008D0003DF0F2A40ED0F294184A192ABC0E181852
:1008E0001910D8A406D0164A172A000E196E000E49
:1008F000186E3DC0F5FF3CC0F8FF3BC0F7FF3AC0A3
:10090000F6FF39C0F4FF38C0F3FF37C0DAFF36C056
:10091000D9FF35C0E2FF34C0E1FF33C0EAFF32C087
:10092000E9FF31C0FBFF30C0FAFF3E921100960E86
:10093000F66E090EF76E000EF86E00EE1AF010EE6D
:1009400016F00900F5CFEEFFE550E150FAE100EEB8
:1009500001F0190EEE6AE806FDE13E903E92000EAF
:10096000F86E0001B4EF04F0000E946E240EAC6E2D
:10097000800EAB6E000EB86ECF0EAF6EF28EF28CA4
:10098000F28AF294F28ED59AD598D596D584D582EE
:10099000D58007EF00F0494E4943494F0A00202017
:0C09A00046494D0A0020202000200A00DB
:020000040020DA
:08000000FFFFFFFFFFFFFFFF00
:020000040030CA
:0E000000040E191EFF8080FF0FC00FE00F409E
:00000001FF
